:020000040800F2
:100000000040002075CA0008B1220008B52200088F
:1000100000000000000000000000000000000000E0
:10002000000000000000000000000000B9220008ED
:100030000000000000000000BD220008C1220008EE
:10004000C5CA0008C5CA0008C5CA0008C5CA000854
:10005000C5CA0008C5CA0008C5CA0008C5CA000844
:10006000C5CA0008C5CA0008C5CA0008C5CA000834
:10007000C5CA0008C5CA0008C5CA0008C5CA000824
:10008000C5CA0008C5CA0008C5CA0008C5CA000814
:10009000C5CA0008C5CA0008C5CA0008C5CA000804
:1000A000C5CA0008C5CA0008C5CA0008C5CA0008F4
:1000B000C5CA0008C5CA0008C5CA0008CD22000884
:1000C0000448054B10B5834203D0044B002B00D0ED
:1000D000984710BD08010020080100200000000022
:1000E00006480749091A8910CB0F591810B549104D
:1000F00003D0044B002B00D0984710BD080100200E
:10010000080100200000000010B5074C2378002BE8
:1001100009D1FFF7D5FF054B002B02D0044800E0C2
:1001200000BF0123237010BD080100200000000063
:10013000C8CA0008054B10B5002B03D00449054878
:1001400000E000BFFFF7CCFF10BDC046000000007C
:100150000C010020C8CA000870B50C4D0C4E761B6F
:10016000B61005D0002408CD01349847A642FAD134
:100170000CF0AAFC074D084E761BB61005D00024E3
:1001800008CD01349847A642FAD170BD306D010800
:10019000306D0108306D0108346D010830B5032A57
:1001A0000CD903000B439B071CD103680C68A342C6
:1001B00018D1043A04300431032AF6D8551E002A17
:1001C0000ED002780C7894420ED10135012301390A
:1001D00004E0C25C0133CC5CA24205D1AB42F8D151
:1001E000002030BD551EECE7101BFAE7F0B5C646FF
:1001F00000B50F2A43D90B00032603431E400C0011
:100200000300002E40D11500103D2D09AC462D01F4
:10021000A846804400E03B00676825685F60E768A7
:100220001D60DF601F00A56810379D6010344345D6
:10023000F1D165460F230C2401352D0149191340D6
:100240004519144223D08C59AC5104369C1B032C05
:10025000F9D80324043B9B0801339B002240ED188E
:10026000C918561E002A07D0002300E02300CA5CEC
:100270005C1CEA549E42F9D104BC9046F0BD0500D6
:10028000561E002AF0D1F7E7561E0500ECE71A00CB
:10029000F6E7C046F0B5050083074AD0541E002A91
:1002A00044D0CEB20300032202E00135013C3DD32D
:1002B00001332E701342F8D1032C2FD9FF220A40AC
:1002C000150215432A0415430F2C35D92700103F7A
:1002D0003F093E01B4461E001A0010366644156000
:1002E00055609560D5601032B242F8D10F260C22CD
:1002F00001373F012640DB193700224217D03E1F4D
:10030000B608B400A4461A001C1D644420C2A242D0
:10031000FCD103240136B6009B193C40002C05D0CB
:10032000C9B21C19197001339C42FBD1F0BD3400D5
:10033000F4E714000300BFE72700E0E708B410B5B6
:1003400004009DB0002A31DB822302A89B00838138
:1003500002910161002A14D00123013A5B428260BC
:100360004261C381010020AB1F9A2000019300F07D
:10037000D7FE431C01DA8B2323600023029A1370FB
:100380000FE001235B4282604261C381010020AB28
:100390001F9A2000019300F0C3FE431C01DA8B2357
:1003A00023601DB010BC08BC01B018478B2303604C
:1003B00001204042F5E7C0460CB430B51D4B9DB05E
:1003C0001D68002931DB822302AC9B00A3810290CF
:1003D0002061002914D0012301395B42A1606161D1
:1003E000E381209A21AB21002800019300F098FEC0
:1003F000431C01DA8B232B600023029A13700FE059
:1004000001235B42A1606161E381209A21AB21005D
:100410002800019300F084FE431C01DA8B232B603B
:100420001DB030BC08BC02B018478B2301202B60E4
:100430004042F5E7000000200323CAB2F0B50340B4
:10044000002A39D0002B0ED00378002B57D09A42C7
:1004500031D0032404E00378002B50D093422AD0FB
:1004600001302042F7D1FF2529400D0229430D0418
:100470000D432C000168234E4C408B198B43A1196E
:10048000A143214E0B4333420BD1043001681D4F71
:100490000C00CB196C408B43E119A1430B43334251
:1004A000F3D00378002B04D129E001300378002B2E
:1004B00025D09A42F9D1F0BD002B0AD00378002B49
:1004C000F9D0032202E00378002BF4D0013010426F
:1004D000F9D102680B4B0C49D31893430B4206D158
:1004E00004300268074BD31893430B42F8D00378CB
:1004F000002BE0D001300378002BFBD1DBE700209C
:10050000D9E7C046FFFEFEFE80808080024670B5BF
:100510000A4392072AD11E4DEE0104C808C9541B94
:100520009443344017D0D0B2D9B2401A21060143C7
:1005300010D190B299B2401A210401430AD110029D
:100540001902000A090A401A2102014302D1100EC1
:10055000190E401A70BD9A42DFD010BA19BA8842FB
:1005600001D9012070BD0020C04370BD02780B7816
:1005700001300131002A09D09A4207D102780B7864
:1005800001300131002A01D09A42EFD0D01A70BD5B
:100590000101010110B5830727D00378002B26D075
:1005A0000300032102E01A78002A1CD001330B4219
:1005B000F9D119680F4A104C8A188A4322420FD188
:1005C000043319680B4A8A188A43224208D104333B
:1005D0001968084A8A188A432242F1D000E00133A0
:1005E0001A78002AFBD1181A10BD0300E1E7002099
:1005F000FAE7C046FFFEFEFE8080808030B5002A0C
:1006000039D003000B439B071FD1032A1DD9036870
:100610000C68A34231D1043A002A2CD01A4C1B4D4D
:100620001C199C432C420CD025E003680C68A342A3
:1006300023D1043A002A1ED0134C1C199C432C428F
:1006400019D104300431032AEFD804780D78013A27
:10065000A5420ED1002A0ED0002C0CD0012304E0BC
:100660009A4208D00133002C05D0C45CCD5CAC426A
:10067000F6D0601B00E0002030BD04780D78013A10
:10068000A542E9D0601BF7E7FFFEFEFE8080808078
:1006900070B50D00060011002800140001F07AF872
:1006A000844202D82B5C002B0ED1030021002A00CB
:1006B000300000F091FB041E06D0821B00213000A8
:1006C00000F01CFA002800D00024200070BDC046B5
:1006D000F0B54546DE464E465746E0B5A34C1E00F3
:1006E00001250123A54488461400834601220021E8
:1006F00001936D4253189E420CD96019E75C805CEF
:10070000874200D3B6E05A1B019219000122531808
:100710009E42F2D801239C46023B012200219946C9
:1007200053189E420ED948462018E75C805C8742E9
:1007300000D8A7E04A469A1A944619000122531895
:100740009E42F0D84B466A1C01339146934202D335
:10075000624699460192FFAA04AB143240C39A4202
:10076000FCD1751E002E0CD02300A446A7196019D9
:100770001A78C11A920004AC0133A150BB42F7D1E0
:100780006446019B4A46E1182000FFF707FD002858
:1007900000D088E000239A464B46013B02935B441D
:1007A00003933300002756469A465B46D819435DAB
:1007B00004AA9B00D358002B23D0002E04D0019A0A
:1007C000934201D253469B1A0026DF1943465246F4
:1007D0009B1ABB42E9D2802158460901114340448B
:1007E00000F0D8FF8044434652469B1ABB42DCD2FD
:1007F00000205F4B9D443CBC90469946A246AB46C8
:10080000F0BD33004E4500D24B46AB420DD25A46A6
:10081000D218D15DE25C914204D027E0E15CC25C79
:10082000914223D10133AB42F8D3029B1A004E45CB
:1008300000D399E0E15C039BDB5D994200D093E03B
:10084000AC46050004E0E05CE95C884203D11A0094
:10085000531E9642F7D12800654601369642C8D805
:10086000019B52469C46D61A6744AFE74A46BF1AD8
:100870000137A9E787420DD001230D000193013113
:10088000012237E787420AD0012389469C4601317D
:10089000012245E70198824263D001322AE762458E
:1008A0005CD001323CE74B46F31A4B4554D301333D
:1008B00002934A4601239B1A019380231B019A4607
:1008C00033000027464698465B46D819435D04AA84
:1008D0009B00D358002B19D0DF194346F31A9F42CF
:1008E000F2D95B46514698194346194300F052FF2E
:1008F00043463618F31A9F4200D979E75B46D81968
:10090000435D04AA9B00D358002BE5D1A9450CD226
:100910004B46C15CE25C914204D019E0E15CC25CF0
:10092000914215D10133AB42F8D34B46013B00D283
:100930005FE7C15CE25C914206D1013B00D258E71F
:10094000E15CC25C9142F8D0029B9C466744C4E7DC
:10095000019A94466744BFE74B46A8E71900012275
:10096000DEE619000122C5E64A4676E7ECFBFFFF0A
:1009700014040000F0B5CE46474680B50D00097856
:1009800091B00400002953D06B78002B00D181E096
:10099000AE78002E52D0E878002800D17EE02A7987
:1009A000002A5ED02800FFF7F5FD802189000600AF
:1009B0000143200000F0EEFE864269D8FE2E00D9E9
:1009C00093E0871B711C40226846E719FFF762FC21
:1009D000002E11D0AA1990463F22F0B281462B007A
:1009E0009446A94461461A7868460A404946C91A9D
:1009F000013381544345F5D13F2398464246013C9B
:100A0000A35D13406A46D35CE418A74203D25CE0BE
:100A10004C44A74259D34246A35D290013406A467D
:100A2000D35C200032009946FFF7B8FB0028EFD1D5
:100A3000200011B00CBC90469946F0BD0904194342
:100A40000378002B24D00130627800E02000002AD7
:100A50001ED01B041343441C42789942F6D1441E15
:100A6000E6E72278002A13D01B020B4336043343F7
:100A70000006184300BA002302E0834233D00C0082
:100A80001B0213436278611C002AF6D183422AD0EC
:100A90000024CDE7FFF7D0FC0400C9E71B040906DA
:100AA0001943237836023143002BF1D01B02601C1E
:100AB000627800E02000002AEAD013431B02441CA5
:100AC00042789942F6D1841EB2E7B8190378002B18
:100AD000DED08021090100F05DFE3F18A74200D35F
:100AE0008CE70024A4E7033CA2E7010033002000C8
:100AF0002A00FFF7EDFD04009AE7C04670B5CDB2BD
:100B0000830734D0531E002A1BD00278AA4219D082
:100B1000032404E0013B14D30278AA4212D001302E
:100B20002042F7D1032B0ED8002B0AD00278AA421C
:100B300008D0C31802E00278AA4203D001308342F1
:100B4000F9D1002070BDFF220C06240C1140214376
:100B50000C04084E0C430268074962405118914347
:100B60003142E3D1043B0430032BF4D8DCE713001B
:100B7000D8E7C04680808080FFFEFEFEF0B5574675
:100B800045464E46DE46E0B5914C0127A5441C0083
:100B900001238A46150080469946012200217F42A2
:100BA00053189C420CD9E819EE5C805C864200D355
:100BB000A3E0DA1B91461900012253189C42F2D897
:100BC00001239C46023B012200219B4653189C4274
:100BD0000ED958462818EE5C805C864200D894E016
:100BE0005A469A1A94461900012253189C42F0D88A
:100BF0005B467A1C01330092934201D3E146009395
:100C0000FFAA04AB143210C39342FCD1661E002C21
:100C10000ED063199C462B006746A446A8191A7883
:100C2000C11A920004AC0133A150BB42F7D1644613
:100C30004B46009AE9182800FFF7B0FA002800D0C8
:100C400077E000980022411E0291414403914946F9
:100C5000611A01910121091A00915146091B0023D3
:100C60008A46834608E0002A02D0494500D201990D
:100C70005B1800229A4537D34146C818815D04AC01
:100C8000890061580029EED111005A4500D2594619
:100C9000B1420DD244466418E75C6C5CA74204D0B4
:100CA0003BE06F5C445CA74237D10131B142F8D3DD
:100CB00002990C005A4500D388E06F5C03999C466A
:100CC000C95C8F4205D081E06B5C475CBB4203D1BD
:100CD0000C00611E9442F7D163460132A24204D84F
:100CE0004B44019A9A45C7D200203A4B9D443CBCE4
:100CF00090469946A246AB46F0BD864215D00123E8
:100D00000F009946013101224AE7864209D00123AA
:100D10008B469C460131012258E7009A9446634471
:100D2000A6E762454FD0013250E74A4548D001322C
:100D300036E7009AA31A934240D301339B4600231F
:100D4000009A9C4601339B1A9946534667461C1BE2
:100D50004346D819835DA4469B00140004AAD358C7
:100D6000002B0AD0DF196745BED84346D819835DEA
:100D700004AA9B00D358002BF4D1B4420CD2015DDD
:100D80002A5D2300914204D014E0E95CC25C9142E8
:100D900010D10133B342F8D3631EA6D3C15CEA5C21
:100DA000914204D008E0E95CC25C914204D1013B6D
:100DB000F9D29AE74F44D5E75F44D4E71300BCE784
:100DC00019000122ECE619000122FFE65C4684E7E7
:100DD000ECFBFFFF14040000F0B557464546DE4625
:100DE0004E46E0B50400C3B090469A46002B00D1B1
:100DF00079E0012B00D194E08B4267D8CE1A861996
:100E0000022B00D171E080225200934200D98EE083
:100E1000002102A85D1EFFF73DFA42460123571E3E
:100E2000FF20012D0AD94246D15CFA5CD2008A1A11
:100E3000024002A98B540133AB42F4D14346595DC1
:100E40005344023B1B7802AADB00C91AFF230B4064
:100E5000D25CFF27AA1A019202AAD5540023994610
:100E6000023B53449B46A64230D35B46E11802E066
:100E70004919002B09D164190B782278DB00D31AA9
:100E80003B4002AAD35CA642F2D2E41A9D42EAD8C1
:100E90000F2D08D941464B464944E0180422FFF77C
:100EA0007DF900280DD12A0041462000FFF776F990
:100EB000002818D04B46032B10D904235B429C46D4
:100EC000E144019B9C466444A642CED2002043B03C
:100ED0003CBC90469946A246AB46F0BD05235B421A
:100EE00053449946EDE72000F1E7157853782D0437
:100EF0001D43037842781B040130134386421AD302
:100F00009D42F0D0013602E09D42E0D010004178D1
:100F10001B04421C0B43B242F6D1701E9D42D5D138
:100F2000D5E713780A001900FFF7E8FDCFE742463E
:100F3000FFF724FECBE70600EFE7C046F0B54646D4
:100F40004F46D646C0B58E6881460C0090461D00BF
:100F500008689E4239D890228B89D200134211D161
:100F600035002A00414600F02BFCA36800209E1BA0
:100F70002368A6609C46654425601CBC9046994643
:100F8000A246F0BD0969421A92466269681C570080
:100F9000BF18FA0FD7197F1050443A00B84201D950
:100FA000070002005B0512D51100484600F0BCFCAA
:100FB000061E1FD052462169FFF718F9A389124A6D
:100FC000134080221343A38106E01E00C9E7484670
:100FD00000F010FD061E09D03000534650446761F2
:100FE000FF1A266120602E00A760BAE721694846F3
:100FF00000F044FC0C234A46136040220120A389E0
:1010000040421343A381B8E77FFBFFFFF0B54E4694
:101010004546DE465746E0B5936883B001900D0023
:101020009146002B6BD0176808688C6844E09022CA
:10103000AB89D20013422ED02969421A93466869BF
:1010400042001218D00F8218701C5210584490465B
:10105000904201D9804602008020C000034237D070
:101060001100019800F060FC041E53D05A46296913
:10107000FFF7BCF8AB89294A134080221343AB81A8
:10108000434620005A462C61B046340058446B61F8
:101090009B1A2860AB604246514600F091FBAB685A
:1010A0001C1B2B68AC6043442B6018004B469B68AC
:1010B0009E1B4B469E6022D03B687E689A4608374E
:1010C000A046002EF8D0A642B1D23400B046E2E7E6
:1010D000019800F08FFC041ED2D1019C29692000E8
:1010E00000F0CCFB0C2323604022AB89012013438A
:1010F000AB814A46002340429360536003E00023E3
:101100004A460020536003B03CBC90469946A24634
:10111000AB46F0BD0C23019A1360E5E77FFBFFFFB0
:10112000F0B54E46DE4657464546E0B5A1B00490C0
:1011300003911C008B8991461B0604D50B6905930E
:10114000002B00D119E1002308AD6B6120336B76D1
:101150001033AB762F3B98464B461B780794924F43
:10116000002B00D186E0252B00D104E14E4603E0A0
:10117000252B00D18BE026007378741C002BF7D14F
:101180004B46E31A9A4675D053464A46039904984B
:10119000FFF7D4FE431C6DD06B6953446B617378C9
:1011A000002B67D00122002352426A60443201348E
:1011B0002B60EB60AB60AB54AB6506E04346C01BF5
:1011C000834034002A6813432B60217805223800BD
:1011D000FFF794FC661C0028F0D12B68B246DA06B3
:1011E00002D543222021A9541A0702D543222B21DC
:1011F000A95421782A2950D1079A111D1268079104
:10120000002A00DA9AE0EA606178A61C2E295CD0F8
:10121000664B032218009946FFF770FC002800D1A6
:1012200071E04B46C01A402383402A68317813434B
:101230002B600622731C5E4899462976FFF75EFCF8
:1012400000286AD05B4B002B00D170E007AB009305
:10125000039A594B2900049800E000BF83465B467F
:10126000013307D06B695B446B614B461B78002BE5
:1012700000D078E7039B9B895B0600D58CE068690A
:1012800021B03CBC90469946A246AB46F0BD4B46C9
:10129000E31A9A4600D185E776E70A00303AA2467B
:1012A000092AB3D8EB68180001E034000136830046
:1012B0001B1831785B0098180A00303A092AF4D9D3
:1012C000B246E860A61C2E29A2D1534659782A2995
:1012D0003AD1079B1A1D079252469178D61C0222DA
:1012E00094461B68E2446B60002B00DB90E701230F
:1012F0005B426B602D4B032218009946FFF7FEFB03
:10130000002800D08DE7B14656463178062228489D
:101310002976FFF7F3FB002894D107AB0093039ADB
:10132000254B2900049800F0E1F8834697E707224F
:10133000079B073393430833079393E75242EA60CE
:10134000022213432B605FE70A000023303A6B60F0
:101350001800092A01D91CE01E0083001B187178AF
:101360005B0098180A00303A731C092AF4D99A468F
:10137000023668604CE74C4614E7402100F0D4FA8E
:10138000039B18601861002809D04023039A536119
:10139000D9E6B24601363BE70120404270E70C2314
:1013A000049A013813606BE7F46C0108FC6C0108C7
:1013B000006D0108000000003D0F0008F0B54F4629
:1013C0004646D646C0B51F00089B914698468A6897
:1013D0000B6906000C00934200DA13004A461360C2
:1013E0004322A25C002A02D04A46013313602368DC
:1013F0009A065AD54B461B6806209A1C4B461A6023
:1014000023681900184208D1E16800258A1A1921B9
:101410008A461900A244002A3FDC4323E35C5A1E9B
:1014200093418A060AD53020E118433108704521DE
:101430005A1C615CA2184332023311702200390039
:1014400043323000C047431C19D006232068A268ED
:1014500021690340042B30D08A423ADD00239946AB
:10146000521A91441A34002502E001354D4530DA14
:101470000123220039003000C047431CF5D1012070
:1014800040421CBC90469946A246F0BD4B46E268DD
:101490001B680135D31AAB4220DD012352463900C7
:1014A0003000C047431CF1D1E9E706221A4212D0AE
:1014B0004323E35C5A1E9341C0E74B46E0681B6838
:1014C000C31AD843C017184081468A42C8DC002B93
:1014D000C8DC0020D5E74A46126895E74323216817
:1014E000E35C5A1E93418A069DD4A7E7F0B55746A0
:1014F0009A4643239C464E464546DE468C44634608
:10150000E0B587B003930B7E914680460C00109A9D
:101510006E2B00D1D8E000D871E0732B00D11AE116
:1015200000D881E0752B00D1FFE0782B00D00BE1D3
:101530000B6878204521605494498B46116840C956
:101540001160180603D4580601D53604360CDA07A4
:1015500002D52022134323601027002E00D1C2E0C1
:1015600043230022E2546368A360002B00DAC5E045
:101570000422216891432160002E00D083E0002BDB
:1015800000D0BDE0039D082F00D18CE0039B5B1BC6
:101590002361534605AA009321004B464046FFF7BE
:1015A0000DFF431C22D023692A0049464046D047FC
:1015B000431C1BD022680598E368920700D47FE0A3
:1015C0001A1A002A00DC7BE026000025193606E006
:1015D000E368059801351A1AAA4200DC70E001237D
:1015E000320049464046D047431CF1D101204042D9
:1015F00007B03CBC90469946A246AB46F0BD632B73
:1016000000D184E01FD8002B69D0582B00D09BE07C
:10161000452163545E4923688B46116840C91160B7
:10162000180600D48FE792E76F2B7ED0702B00D086
:101630008AE02023096878200B4345212360605409
:1016400052498B467AE7642B01D0692B7CD1116813
:101650002368081D10601D064AD50A681600002A76
:1016600003DB4B4B0A279B467DE743222D21A154E8
:1016700062687642A260002A02DB04229343236060
:10168000434B0A279B46039D00E0060039003000CB
:1016900000F08CFA5B465B5C013D2B70BE42F4D2DD
:1016A000082F00D072E72368DB0700D46EE7636879
:1016B0002269934200DD69E73023013D2B7065E725
:1016C000984295DA180093E7136809681D1D606950
:1016D00015601B680E0601D449064BD41860002320
:1016E000039D236155E7202322689A43226037E750
:1016F0005D06B2D500228E5E3200B0E7002EC2D168
:101700005B4625001A7842234235E2543BE71368D2
:101710002500191D11601A684223E254413B4235ED
:10172000236143230022E25433E7116820680D1D32
:101730001560060601D440061ED40E686F2B1DD01E
:10174000134B0A279B460BE742222500A354012393
:1017500042352361E5E71368191D11601D68626851
:1017600000212800FFF7CAF900280BD0401B606059
:101770002061D6E71880B2E70E88DFE7044B082720
:101780009B46EDE660682061CBE7C0461C6D010812
:10179000086D010810B500290BD00378002B0CD080
:1017A0004418030002E01A78002A04D00133A3424F
:1017B000F9D1080010BD191AFBE70021F9E7C0466E
:1017C000F0B5C64600B588420CD98B18984209D2AC
:1017D000531E002A03D0CA5CC254013BFBD204BC96
:1017E0009046F0BD0F2A0CD80500561E002AF6D0F0
:1017F000002300E02300CA5C5C1CEA549E42F9D13D
:10180000EDE70B00032603431E400C000300002EEF
:101810002ED11500103D2D09AC462D01A84680445F
:1018200000E02B001D00276810351F6067685F60AF
:10183000A7689F60E7681034DF604345F1D16546D3
:101840000F230C2401352D01491913404519144269
:1018500011D08C59AC5104369C1B032CF9D80324AD
:10186000043B9B0801339B00ED18C9182240BCE7DC
:10187000561E0500BCE71A00B7E7C04670B5050064
:10188000002915D00C1F2368002B27DB280000F04F
:10189000EBF8244B1A68002A05D0A2420CD9216823
:1018A0006018824224D0626028001C6000F0DEF8DC
:1018B00070BDA34203D81A005368002BF9D11168F8
:1018C0005018A0421BD027D821686018834207D047
:1018D00063605460280000F0C9F8E9E7E418D5E730
:1018E00018685B6884466144216063605460F1E776
:1018F000106852688446614421606260D4E72068C1
:101900000918501811608342E4D118685B68844656
:10191000614411605360DDE70C2328002B6000F068
:10192000A5F8C5E724010020F8B50323CD1C9D438D
:10193000083506000C2D2AD20C25A94229D83000E2
:1019400000F092F82A4F3A68002A0AD013685B1B0D
:1019500004D441E023685B1B1FD522005468002C8F
:10196000F8D17B68002B3DD02900300000F06AF8E8
:10197000431C2AD00323C41C9C43A04205D0211A37
:10198000300000F05FF8431C1FD0256010E0002DF0
:10199000D3DA0C2300203360F8BD0B2B05D8636825
:1019A000A2421DD0536003E014002360E4182560B8
:1019B000300000F05BF8200007220B30231D90431D
:1019C000C21AE9D01B1AA350E6E70C23300033609B
:1019D00000F04CF80020DFE70B2BE5D8140053682B
:1019E0003B60E5E70021300000F02CF87860BBE7B1
:1019F00024010020F8B507000C00150000291BD0B9
:101A0000002A15D000F034F82600A84201D3300097
:101A1000F8BD29003800FFF787FF061EF7D0210028
:101A20002A00FEF7E3FB21003800FFF727FFEEE76F
:101A3000FFF724FF0026EAE71100FFF775FF060015
:101A4000E5E7C046002370B5064C0500080023609A
:101A500000F018F8431C00D070BD2368002BFBD0A9
:101A60002B60F9E7203900207047C0467047C04618
:101A70000B1F1B68181F002B00DB70470B58C0188A
:101A8000FBE7C046044A1368002B03D01818106007
:101A900018007047014BF9E72C010020283900207D
:101AA000002243088B4274D303098B425FD3030A9D
:101AB0008B4244D3030B8B4228D3030C8B420DD3B0
:101AC000FF22090212BA030C8B4202D3121209023E
:101AD00065D0030B8B4219D300E0090AC30B8B427C
:101AE00001D3CB03C01A5241830B8B4201D38B032A
:101AF000C01A5241430B8B4201D34B03C01A5241CF
:101B0000030B8B4201D30B03C01A5241C30A8B4211
:101B100001D3CB02C01A5241830A8B4201D38B02FC
:101B2000C01A5241430A8B4201D34B02C01A5241A0
:101B3000030A8B4201D30B02C01A5241CDD2C30912
:101B40008B4201D3CB01C01A524183098B4201D38E
:101B50008B01C01A524143098B4201D34B01C01A79
:101B6000524103098B4201D30B01C01A5241C308F1
:101B70008B4201D3CB00C01A524183088B4201D360
:101B80008B00C01A524143088B4201D34B00C01A4C
:101B90005241411A00D20146524110467047FFE7B8
:101BA00001B5002000F0F0F802BDC0460029F7D0D2
:101BB00076E7704703460B437FD4002243088B42ED
:101BC00074D303098B425FD3030A8B4244D3030BC4
:101BD0008B4228D3030C8B420DD3FF22090212BA89
:101BE000030C8B4202D31212090265D0030B8B4205
:101BF00019D300E0090AC30B8B4201D3CB03C01AEF
:101C00005241830B8B4201D38B03C01A5241430BC9
:101C10008B4201D34B03C01A5241030B8B4201D3B9
:101C20000B03C01A5241C30A8B4201D3CB02C01A24
:101C30005241830A8B4201D38B02C01A5241430A9C
:101C40008B4201D34B02C01A5241030A8B4201D38B
:101C50000B02C01A5241CDD2C3098B4201D3CB0132
:101C6000C01A524183098B4201D38B01C01A5241E1
:101C700043098B4201D34B01C01A524103098B42E5
:101C800001D30B01C01A5241C3088B4201D3CB00D0
:101C9000C01A524183088B4201D38B00C01A5241B3
:101CA00043088B4201D34B00C01A5241411A00D263
:101CB00001465241104670475DE0CA0F00D04942CC
:101CC000031000D34042534000229C4603098B423C
:101CD0002DD3030A8B4212D3FC22890112BA030AC4
:101CE0008B420CD3890192118B4208D38901921146
:101CF0008B4204D389013AD0921100E08909C309CB
:101D00008B4201D3CB01C01A524183098B4201D3CC
:101D10008B01C01A524143098B4201D34B01C01AB7
:101D2000524103098B4201D30B01C01A5241C3082F
:101D30008B4201D3CB00C01A524183088B4201D39E
:101D40008B00C01A5241D9D243088B4201D34B00B9
:101D5000C01A5241411A00D20146634652415B10FB
:101D6000104601D34042002B00D5494270476346DC
:101D70005B1000D3404201B5002000F005F802BD21
:101D80000029F8D016E770477047C046074B33224A
:101D900003840023C3612933C254054B4385054B9B
:101DA0008361054B436100207047C046DC0500009D
:101DB00045580000D51D0008CD1D0008004870479B
:101DC00018CB000810B505F063F910BD10B509F087
:101DD000B1FA10BD70B50D00C82405E00120013C2A
:101DE0000AF0E0FD002C08D003F0E4FE0028F5D056
:101DF000280003F0E7FE002070BD08204042FBE70A
:101E000070B50D0009490400FEF780FB002808D0DA
:101E100007492000FEF77AFB03000020002B00D0CA
:101E200070BD044B01201B682B60F9E704CB000850
:101E300000CB0008B8000020F8B54E464546DE4607
:101E400057469046E0B51E00002933DD1D4B0024A7
:101E50009B461D4B8F009A461C4B994643461D5985
:101E600059462800FEF752FB002806D133591B784B
:101E7000313B5A425341164A137051462800FEF72F
:101E800045FB002806D133591B78313B5A42534158
:101E9000104A137049462800FEF738FB002806D187
:101EA00033591B78313B5A4253410B4A1370043467
:101EB000A742D3D109483CBC90469946A246AB46BE
:101EC000F8BDC0464CCB0008F8CA0008FCCA0008A0
:101ED00030010020310100203201002018CB000821
:101EE00070B50D0014001F2A18DD01281ED009DD71
:101EF000022815D0032811D10F4B01201B78303355
:101F00000B700CE0002809D10AF03CFD0B4A0300DD
:101F100021002800FEF750FA80B200E0002070BDDA
:101F2000074B01201B7830330B70F8E7054B01207D
:101F30001B7830330B70F2E73201002014CB00081D
:101F40003101002030010020F0B5C6460F4C00B52D
:101F5000236807000D00002B02D004BC9046F0BDA2
:101F60008BB2032219000320984604F0F9F9061EEB
:101F7000206007D02A0039004068FEF737F9434651
:101F80007381EAE703F072FDE7E7C04668010020CD
:101F900010B50AF0F7FC10BD10B598B03022002142
:101FA0000CA8FEF777F9102200216846FEF772F9B7
:101FB0001C22002104A8FEF76DF922230B93213B7C
:101FC0000E9313930F330F9380231B0215938023DB
:101FD00002245B030BA81494169302F019FA00284C
:101FE00001D072B6FEE707230290039001216846F4
:101FF0000093019402F0F2FC002801D072B6FEE7D3
:1020000080230A909B0204A8049302F07BFD002821
:1020100001D072B6FEE718B010BDC046F0B5C64696
:1020200000B58CB002F046FEFFF7B6FF1422002187
:1020300007A8FEF72FF98020824B0003596900257D
:10204000014359615A690126024080200492049A92
:10205000596980020143596180215A69C9020240CD
:102060000592059A5A69784C0A435A615B690022C5
:102070000B40069321007548069B02F0E5FF07948C
:1020800007A972489024089609950A9502F0E0FE87
:102090000623640307A96D48984607930894099599
:1020A00002F0D6FE902007A9C0050894079609956E
:1020B00002F0CEFE664C674B20002360664BA560A5
:1020C0006360E66025616561A561E561256202F0F6
:1020D00013FE002801D072B6FEE70021200002F0B6
:1020E00063FE011E01D072B6FEE7200002F082FE00
:1020F000002801D072B6FEE7584B594A07211A60F2
:10210000822252005A60FD32FF32DA60013AFF3A11
:102110009A61F93AFF3A98601861586118625862FA
:10212000986218631800DA61D9625A6302F0E6FF18
:10213000002823D14B4B4C4A18731A608022520559
:102140005A60802252049A60802292019A61A022F1
:10215000DA61743A9854912292001A63912258617C
:102160001862586298625863D20018001E619A6320
:1021700003F064F8051E03D072B6FEE772B6FEE700
:102180003A4C02003A49200003F0B0F839492000E7
:1021900003F0C6F8200003F0EFFC200003F0CAF8BB
:1021A0000AF0CCFB03F054FD334F222342463800A3
:1021B000FA54324906222330FEF718F8304B314CDE
:1021C0000293314B314A210001930095304B380086
:1021D00003F0DCFF04F016F82E480AF043FC292334
:1021E000FB5C334200D1FEE72B4D280009F03EFC9A
:1021F0000028FAD1294B352598464246290020006F
:1022000009F044FD061EF8D1022125480AF084FB9E
:102210000422244924480AF071FB0AF051FB234DA3
:1022200072B62C682E6062B6002C08D039002000EF
:1022300009F008F9200004F0ABF903F017FC0AF0EC
:10224000CFFBEDE700100240E1030000000800486A
:10225000AC290020005800405D3E30204829002075
:1022600000380040202C002000400240002A0020BE
:10227000C0CB000840CC0008380100200CCB00087F
:10228000C1A10008B80000208D1D0008BC0000207E
:1022900034010020D000002064000020011E00084E
:1022A000E8CA0008C0000020E11E00086801002004
:1022B000FEE7C046FEE7C0467047C0467047C046CE
:1022C00010B50AF033FB02F005FD10BD10B5024851
:1022D00001F0A4F910BDC046642C002001220A4B75
:1022E00082B099691143996199690A4080210092ED
:1022F000009ADA6949050A43DA61DB690B40019308
:10230000019B02B07047C0460010024010B50400A7
:1023100088B01422002103A8FDF7BCFF134B2268EC
:102320009A4201D008B010BD8021114CC9026269E7
:1023300010480A436261636903220B400193019BC9
:10234000C0231B010393122303A90493113B05939C
:102350000692079302F07CFD8021E269C9030A43DB
:10236000E261E3690B400293029BDBE70058004007
:10237000001002400004004810B5040088B0142288
:10238000002103A8FDF786FF124B22689A4201D074
:1023900008B010BD8020104BC001D9690143D9613C
:1023A0008021DA69C90202400192019A5A690B48F8
:1023B0000A435A615B690B400293029BE0231B02B4
:1023C0000393022303A904930133069302F040FD13
:1023D000DEE7C0460038004000100240000400481C
:1023E000F0B5040089B01422002103A8FDF752FFC4
:1023F000264B22689A4201D009B0F0BD8020244BC0
:10240000400459690325014359615A690226024073
:1024100080200092009A596980020143596180210D
:102420005A69C90202400192019A5A6990200A43EE
:102430005A615B69C0050B400293029B442303A9C8
:1024400003930496079502F003FD9020002488234F
:10245000122703A9C00503930497059406940795D2
:1024600002F0F6FC012303A90A480393049605949D
:102470000694079502F0ECFC03A90648039604971E
:1024800005940694079502F0E3FCB5E7004002408E
:102490000010024000040048122301480B807047DE
:1024A000D4CB0008042301480B807047B0CB000850
:1024B00070B50023002608E001333034DBB20C7025
:1024C0004E70000102319A420CD0050FECB2092D7A
:1024D000F2D901333734DBB20C704E700001023197
:1024E0009A42F2D170BDC0460A4B70B51D681A23DE
:1024F000094C0B80094BA11C238004220848FFF7DC
:10250000D7FF210028000A310822FFF7D1FF200061
:1025100070BDC046B0F7FF1F6C0100201A03000019
:102520000000020210B5044C0A000448210003F028
:10253000C9F9200010BDC0466C010020BCCB0008CA
:1025400010B5044C0A000448210003F0BBF9200038
:1025500010BDC0466C010020B4CB0008802110B52E
:10256000154C8902626988B00A436261636900227E
:102570000B400193019BC02390205B010393022336
:10258000059203A90332C00504930692079302F053
:102590005FFC8021E26909040A43E261E3690022E9
:1025A0000B40029303211F20029B02F053FD1F20CA
:1025B00002F07CFD08B010BD00100240AC2310B545
:1025C0009B00C1184033C05802F0D0FE10BDC04679
:1025D0008B005B18DB00C3187D33FF331A68BC2304
:1025E00010B59B00C05802F0F5FE10BD8B005B18C3
:1025F000DB00C318DA6BBC2310B59B00C05802F097
:1026000025FF10BDBC2310B59B00C05802F092FFFF
:1026100010BDC04670B5BC240500A40001210059BE
:1026200002F084FF285902F05DFF70BD7047C0467C
:102630007047C04670B5134B0400134887250360EC
:10264000022303618360BC234026AD009B0082B05F
:10265000C4506051C66000F05DFF4023002200219D
:102660006059019601F0A2FE4023002280216059AA
:10267000019601F09BFE605901A903F07FFA00204A
:1026800002B070BD005C0040642C0020872310B5B0
:102690009B00C05800F0ACFF002010BD10B5140026
:1026A0001A0087239B00C058230001F05DFD002025
:1026B00010BDC046872310B59B00C05801F086FDB1
:1026C000002010BD872310B59B00C05801F0F8FD15
:1026D000002010BD872310B59B00C05801F02AFED2
:1026E000002010BD87234AB29B00C358002A07DB95
:1026F0008A005118C9005B186B33FF331878704794
:102700007F22114001318A005118C9005B18987866
:10271000F5E7C046872310B59B00C05801F010FDB7
:10272000002010BD10B58724A400005901F0AAFDB7
:10273000431E9841C0B210BD10B58724A4000059B3
:1027400001F076FD431E9841C0B210BD872310B53D
:102750009B00C05801F08CFD10BDC04644230022F0
:10276000C252024A043BC2520020704780BFFFFFA2
:1027700040220349835A0B40835200207047C046D1
:102780007F40000084B002920393402201238352D1
:1027900000238352043283520C3283520191002071
:1027A00004B07047F0B50C780300A4000419228827
:1027B000A8480240C878012800D108E1002800D1CB
:1027C00001E1022800D196E0032800D065E0C02096
:1027D000C00002430020A04DA04E2A4392B22280A6
:1027E0000F78BC001C19228832403A432A4392B227
:1027F00022800A7B002A52D00A78CC7892009A185C
:10280000022C00D10EE11488954E34402543ADB220
:10281000158080265025F600B4460A785C5BD2000D
:102820009A18624412190C896408640014805C5B75
:102830008C4D0A78AC46D2009A18624412194C8921
:102840006408640014804A78002A56D10A789200FD
:102850009A181488640408D51488804D2C40824D41
:102860002C4314800A7892009A181488640600D5C4
:10287000B2E014887D4D2540C024A4016C40764D03
:102880002C43A4B214800A78794992009B181A88C4
:102890000A401543ADB21D80F0BD01209BE7CC88F6
:1028A0000A784D786408D2006400D218002D54D004
:1028B00050255D5BAA188025ED00AC46624414806B
:1028C0000A7892009A181488640607D5148826405E
:1028D000684C264316800A7892009A18CB78012B10
:1028E00000D191E0138862490B4020214B4062499E
:1028F0000B431380D0E700206DE70A7892009A1806
:102900001488640408D51488544D2C40564D2C432B
:1029100014800A7892009A181488640608D51488DE
:102920004E4D2C40534D2C4314800A7892009A1837
:10293000CC78012C6FD014884D4D2C4020256C4054
:102940004D4D2C4314800A78484992009B181A88F0
:102950000A4049490A431A809EE750269D5BAA18FF
:10296000404DAC46454D6244AC4614800A789C5BB1
:10297000D200D218624412191488A405A40D148040
:102980000C693E2C32D8002C59D1802514882D0298
:102990002C4314800A7894001C1925886D0406D5F0
:1029A00022882E4D2A40304D2A4322800A78002A60
:1029B0003ED11A882D491140C02292014A402E4929
:1029C0000A431A8068E78025AD002A4303E7802088
:1029D000C00002430020FEE61488204D2C40254D07
:1029E0002C4314800A7892009A1842E7313E650918
:1029F0003440664274412D1B1488AD022543204C9F
:102A00002C43A4B21480C5E7138819490B401A4916
:102A10000B43138040E71488154D2C40164D2C4372
:102A2000148090E714882640164C26431680F0E662
:102A300092009B181A880D4911408022BDE701269B
:102A4000650834402D191488AD022C43A4B21480BB
:102A5000A0E7C0468F89FFFF8080FFFF8F8FFFFFB9
:102A60008F8EFFFF0404000080C000008FBFFFFFB7
:102A7000BF8FFFFFC08000008080000006040000C0
:102A80000080FFFF8081000010B50B780C7B9B005D
:102A90004A78C318002C20D1002A0BD01A8852067D
:102AA00000D580E01A8845490A4045490A431A8002
:102AB000002010BD1A88520408D51A88414C2240C3
:102AC000414C22431A800B789B00C3181A883F4957
:102AD0000A403B490A431A80EAE7002A31D11A88A2
:102AE000520408D51A88374C2240374C22431A80AA
:102AF0000B789B00C3181A88520608D51A88314CE7
:102B00002240334C22431A800B789B00C3181A884A
:102B10002C4C22402E4C22431A800C782B4AA400C5
:102B20000419238813402B4A13439BB223800B784C
:102B300022499B00C01803880B401A4392B20280BE
:102B4000B6E71A88520408D51A881E4C22401E4C3B
:102B500022431A800B789B00C3181A88520608D5A6
:102B60001A88184C22401A4C22431A800B789B007A
:102B7000C3181A88134C2240134C22431A800C7835
:102B80000E4AA400041923881340124A13439BB22F
:102B900023800B780D499B00C01803880B401A4313
:102BA00092B2028084E71A88064C2240084C2243E5
:102BB0001A800B789B00C31874E7C046BF8FFFFFD5
:102BC000808000008F8FFFFF80C000008FBFFFFF5D
:102BD000C08000008080FFFFF0B54646D6464F46D5
:102BE000C0B54A780600087B012A00D179E00028A8
:102BF0003AD0CB78022B00D1ECE00120012B6BD135
:102C00008D6908690024854201D92C1A05008C6160
:102C10000B78002A00D02BE15020974A345AB21882
:102C20001219DB00D3181A889205920D1A803E2DD6
:102C300000D931E2002D00D0F9E21C888F4A1443FC
:102C4000A4B21C804C78002C00D004E18C4B305A8C
:102C5000F3181B180878C0001B1818888005800D11
:102C600018801888024328E088690B69002298427E
:102C700001D9C21A180050238A61F45A804B0A788D
:102C8000F318D2001B19D3181A889205920D1A80D6
:102C90003E2800D993E0002808D180201A8800023D
:102CA00002431A800B789B00F3180BE001224408C2
:102CB000104024181A88A402224392B21A800B787A
:102CC0009B00F3181A886F4900201140C02292011E
:102CD0004A406D490A431A801CBC90469946A24658
:102CE000F0BD0D698A69AA4264D84B6900282FD1CA
:102CF00090B28446802015042D0CCA88C00001358E
:102D000034186D081219002D0BD06D005D19D01A02
:102D10005C781A7824021F18224302333A809D42BD
:102D2000F6D15023544AF45A0B78B2181219DB002A
:102D30009B1862461A800878544A800036183388F7
:102D400000201340302253404F4A13433380C3E7DF
:102D50000C78086AA700BC46CF78B444022F00D193
:102D60009CE08027801A08626046FF00BC46058808
:102D700090B21204120C0132E4005208B4446D0601
:102D800000D423E15025775B3D4D7519ED192C19C1
:102D9000208048896044002ACDD052009A18C71A72
:102DA0005C7818782402DD1920430233288093428E
:102DB000F6D1C0E72A004B690028C9D198E71F2245
:102DC00044091040424250411A88241AA402144374
:102DD0002A4A71E70B78002A2AD15027264AF05B4D
:102DE000B2181218DB00D3181A889205920D1A80B7
:102DF0000A693E2A00D92DE1002A00D010E21C8881
:102E00001E480443A4B21C804C780B78002C00D0E0
:102E100068E11B4AF45BB2181219DB00D3181A8858
:102E20009205920D1A801A88104380B218800B7890
:102E3000CA699B00F318002A00D143E71A88144896
:102E40000240824202D0002A00D03BE711481A8893
:102E50000240114824E70B78012C09D15022B05AC6
:102E6000074ADB00B2181218D218ADB215800B78E1
:102E70009B00F31826E7C046020400000080FFFF15
:102E8000060400008FBFFFFF80800000BF8FFFFFA0
:102E9000404000008F8FFFFFC0800000854200D3BC
:102EA000ADE06446D74F2488801A3C40D64F824616
:102EB0003C4367463C800F780862BC003419248884
:102EC000600600D41CE14C78002C00D0F7E15034AF
:102ED000305BCE4CFF0034192418E7193C88A40558
:102EE000A40D3C803E2A00D8CFE1500984461F2023
:102EF00010404442444120006446201A84466446FF
:102F00003888A4022043C24C0443A4B23C804F89B9
:102F10008020B9461404240CC00001343018640821
:102F20008144002C11D06400A0461C0098446778AE
:102F30003F02BC4660462778023407434846078074
:102F400002208446E1444445F1D19B184B610024A2
:102F5000554500D2A2E14A780C62002A00D085E1F2
:102F600050465032B55AAB4A0C78B218E4005219A8
:102F7000A2181488A405A40D14803E2800D8C6E128
:102F80001F24044067427C4145092D1B1488AD0273
:102F900025439F4C2C43A4B2148052468020150434
:102FA0002D0C0A89C000013530186D081218002D4B
:102FB00000D1C0E66D0055195C78187824022043D2
:102FC000108002320233AA42F6D1B4E65025775B74
:102FD000904D7519ED192C1920800F896744002A2E
:102FE00000D1A8E652009A18FF1A5C7818782402DB
:102FF000DD192043023328809342F6D19BE66246D6
:10300000854C12882240854C2243644622805022FF
:10301000804CB55A0A7834196419D200121984B256
:10302000148004048020240C0A89C000013437185D
:103030006408BF18002C00D17DE664001C19FF1A3B
:1030400058781A780002DD19024302332A80A3421D
:10305000F6D170E61F24144065426C415009001BF4
:103060001C8880026A4D04432C43A4B21C804C7817
:103070000B78002C36D1654AF45BB2181219DB00CC
:10308000D3181A889205920D1A801A8810430543A6
:10309000ADB21D800B78CBE61F242C4067427C41EB
:1030A0006A09121B92021C8892B2594F14433C4386
:1030B000A4B21C804C78002C00D0CCE6534B305A84
:1030C000F3181B180878C0001B1818888005800D9D
:1030D0001880188802431743BFB21F800B789B00EB
:1030E000F318EFE5012C00D0A2E65020345A4748EF
:1030F000DB0030180019C31892B21A800B7897E6DB
:103100004C78002C00D0CDE05034305B414CFF00B7
:1031100034192418E7193C88A405A40D3C803E2AE4
:1031200000D8E8E0500984461F2010404442444142
:1031300020006446201A844664463888A40220434E
:10314000334C0443A4B23C8080201404240C0F8927
:10315000C0000134301864083818002C11D0640005
:10316000A14698468144444667783F02BC4627788A
:10317000644627430224A44607800230E0444845C1
:10318000F1D19B184B610024554500D2BBE04A7831
:103190000C62002A00D09FE050465032B55A1B4ABC
:1031A0000C78B218E4005219A2181488A405A40DD2
:1031B00014803E2800D8BDE01F24044067427C41B3
:1031C00045092D1B1488AD022543114C2C43A4B294
:1031D0001480524614048022240C4D89D2000134FC
:1031E000B2186408AD18002C00D1A4E564001C19C5
:1031F00058781A780002024302332A800235A3422B
:10320000F6D198E58F8FFFFF808100000604000053
:103210000080FFFF020400008F8EFFFF808000000F
:10322000012554081540601980021C88E9E5012435
:103230006A082C40121992021C8897B23C431C80E9
:103240004C78002C00D006E6584A305A0B78B21859
:103250001218DB009B181A889205920D1A801A88A2
:1032600017431F800B789B00F3182BE5012A00D031
:1032700093E64F484F3234185046B55A0A786419CD
:10328000D200121984B2148087E6002A00D07BE0B5
:1032900080253C882D022C433C804B615046924651
:1032A000841A58E6012C00D04EE74F34305B404C76
:1032B000FF0034192418E71994B23C8044E7012C2C
:1032C00000D024E64F34305B384CFF00341924180A
:1032D000E71994B23C801AE6012A00D079E7334816
:1032E0004F3234185046B55A0A786419D200121970
:1032F00084B214806DE7002A35D180253C882D02E8
:103300002C433C804B6150469246841A3FE700288C
:1033100023D00124450804402D191488AD022C4304
:10332000451C8020A4B214800A89C00030186D08A2
:1033300012183FE6002810D00124450804402D193A
:103340001488AD022C43A4B20130148044088020BC
:103350004A89C0003518AD1848E78020138800025C
:1033600003431380E7E401245008144000193C880B
:10337000800204438020A4B23C800F89C000541C0A
:10338000301864083818EAE601245008144000197F
:103390003C8880020443A4B23C804F898020B94617
:1033A000C000541C301864088144BCE506040000C9
:1033B000020400000B789B00C0184B78002B09D04A
:1033C0000388094A134010225340084A13430380DC
:1033D000002070470388064A1A4080235B0153404F
:1033E000024A13430380F3E7BF8FFFFF8080000092
:1033F0008FBFFFFF10B50B7B002B1CD10B784A78D9
:103400009B00C318002A18D01A88520605D51A88BE
:10341000154C2240154C22431A80CB78012B0AD040
:103420000B78134A9B00C018038813402022534096
:10343000104A13430380002010BD1A88520408D597
:103440001A88094C22400C4C22431A800B789B00AE
:10345000C3181A8809491140C02292014A400549FF
:103460000A431A80E7E7C0468F8FFFFFC080000045
:10347000BF8FFFFF8080000080C000008FBFFFFF74
:10348000002902D14C238022C25200207047C0463E
:1034900058228021835A09020B438352002070472F
:1034A0004423C05A80B2704730B55C1C8023DB00D7
:1034B000D51864084519002C0BD064000C196D1A3E
:1034C0004A780B7812024819134302310380A14253
:1034D000F6D130BDF0B58025ED001400AC46644453
:1034E00000191A0005005B080FD00D001E00471AD6
:1034F000EC192488013EA4B22C70240A6C700235A9
:10350000002EF5D15B00C518C918D30701D52B884B
:103510000B70F0BDF0B5C64600B5040086B00028BB
:1035200061D0324BC35CDBB2002B52D003222F4B55
:103530002068E254FFF71CF96168002200292DD0B1
:1035400029239C46023301272826984600206546F9
:1035500093009B18DB00E3185F5545469A550132EE
:10356000D2B258559863D86318648A42EFD30022C8
:10357000002093009B18DB00E3181D006A35FF351F
:103580002870013D2A7081330132E870FF33103515
:10359000D2B22860686018608A42EAD323006A4683
:1035A000103323CB23C203CB03C2A268E368616854
:1035B0002068FFF7E7F824230022E2540B4B013286
:1035C000E254E369012B0AD0002006B004BC904607
:1035D000F0BDAA2292008354FEF7C0FFA6E72000A8
:1035E00000F000FFF0E70120EFE7C046A90200006D
:1035F00070B5AA25AD00435D0400012B0BD001235B
:1036000043550068FFF7AAF82068FFF741FF002341
:103610000020635570BD0220FCE7C046F0B5DE46D1
:10362000454657464E46E0B5040085B00068802503
:10363000FFF736FF2D0205402DD1430500D54CE2A2
:1036400043041BD480239B01034000D05EE2C204EC
:1036500000D57BE1030500D516E38023034200D0AB
:10366000F0E2830501D500F003FCC3050CD544222C
:103670002168C3488B5A03408B5205E044222168DD
:10368000C0488B5A03408B5205B03CBC90469946CB
:10369000A246AB46F0BD44239A46353B9B46206884
:1036A0005346C35A1BB2002BEEDA53465D46C35A4B
:1036B0009BB21D4060D1DB0600D4ECE003889BB2D6
:1036C0001A0500D5E5E11BB2002BE9DA0388AE4A02
:1036D000250013408022134303805023C25A19331C
:1036E000FF33E35C6935DB00C3189B18A74AFF353D
:1036F000944663441B889B059B0DEB610FD0696961
:1037000000290CD0EA88FFF7E5FEEA696B69944668
:10371000634420006B610021FEF75AFF2068038894
:103720009BB21A05BCD4C022920113409342B7D079
:103730005023964AC35A8218D21813889B059B0DB2
:1037400013802B693E2B00D80FE31F2559092B400E
:103750005D426B41C91A1388890219438C4B0B4394
:103760009BB2138003888B4A1A40C0239B015340AD
:10377000894A1343038093E7AB009846C3181E8819
:10378000B6B232B2002A3FDB330600D488E74346A4
:10379000C218138881490B407D490B439BB21380AB
:1037A00043465F192B23FF00E719FB5C012B00D177
:1037B000B3E128239946FB5C3A6C0193DB009C46FD
:1037C00080235B00334000D0F2E05021415A744E18
:1037D00041186144B446614409888905890D9142C4
:1037E00000D3C3E1FB6B521A5B18FB637B6C0135A2
:1037F0009C4661447964A9004919C9003A6461187A
:10380000FFF7EAF920684BE71A885F490A408021F0
:103810000A431A8043465B19DB00E3181A0075322D
:10382000FF321278002A64D15032815A1A0069326C
:10383000FF321278D2005218544912188C46624452
:103840001788BF05BF0D00D0B0E143465919C90024
:10385000631818008530FF3002680838D21982607A
:103860000268D21902601A008132FF321268002AFF
:1038700005D07933FF331B68BB4200D87EE1434655
:103880005B19DB00E3186933FF3320001978FEF77A
:103890009FFE206878E70388404A00211340802279
:1038A0001202134303805023C25A283BE35CDB001F
:1038B000C3189B183A4A20009446E26B634494462E
:1038C0001B889B059B0D63646344E363FEF78EFED8
:1038D0002423E25C2068002A00D1E1E6226C002A61
:1038E00000D0DDE68025E15C2943343D4153E254BC
:1038F000D6E61A001F006C32FF3269371278FF37A4
:103900003978022A00D1E9E18900894681444A4692
:10391000244912880A4024490A4349460A803A78D1
:10392000910041180988490400D42FE15021415ADF
:10393000D20052181A4912188C4662441788BF05E3
:10394000BF0D00D181E71A00713231E14022042518
:103950002168885AA8438852885A0435A843885257
:10396000B8229200A15C012900D18CE22000FEF770
:103970005FFE442221680D488B5A03408B5283E638
:10398000FFFEFFFFFFBFFFFF8F0F000006040000D8
:103990000080FFFF8FBFFFFF808000000F8FFFFFC1
:1039A000020400008F8FFFFFC0800000FFEFFFFFC9
:1039B0008023DB013340029340231E4000D100E10D
:1039C000BB4E1033B14681444E46C35A03966646F9
:1039D0004B449B5B9B059B0D934200D311E2D21A93
:1039E0003A64029A002A08D0019AB24E9100411816
:1039F0000A883240B04E32430A8042465219D20001
:103A0000A21811004C310E78012E00D001E1D66BC6
:103A1000B14699444E46D663566CF6185664966C79
:103A2000B446966BB44500D232E363469B1B936465
:103A3000B3B22922BA5C002A00D01BE35032825A6A
:103A400028210192039A795C9446019AC900624444
:103A50008A1811888905890D11803E2E00D83BE314
:103A6000710901911F210E40714271410E000199AF
:103A7000891B168889020E439049314389B211800F
:103A80004544ED0065192A8E4946FFF70DFD206873
:103A9000BFE05023C25A1933FF33E35CAC21DB0093
:103AA000C3189B18864A89009446220063441B88E9
:103AB00069329B059B0DFF32D3616118D288FFF7F5
:103AC00009FD22687F49138820000B4080210B43A9
:103AD0001380FEF773FD2068E2E54422AA262168E0
:103AE00079488B5AB60003408B522000FEF792FDB6
:103AF000A35D012B00D1C7E50123A3552333E55472
:103B000000212068FFF7BCFCA555BDE544222168D3
:103B10006E488B5A03408B52B6E500233A003B6453
:103B200034321278002A1AD04022164000D07DE0AC
:103B30002923FB5C002B00D0ABE15033C25A283B59
:103B4000FB5C5F4DDB00AC466344181880180388AB
:103B50009B059B0D03800388194389B201802823AC
:103B60002000F95CFEF742FD206899E53B644B4676
:103B70002000F95CFEF73AFD206891E56931FF31DC
:103B800061182068FFF728F82068FDE55021415AA8
:103B9000D20052184A4912188C4662441788BF0551
:103BA000BF0D00D151E61A00733201E01A006F32E6
:103BB0007D33FF33FF32196812883B00FFF78AFC20
:103BC00043E650233E49C35A411889460391614652
:103BD0004B445B5A9B059B0D934200D9D2E0D21A0D
:103BE0003A6400D1CFE0029A002A08D1019A314903
:103BF0009200821816880E402F490E4316804246C6
:103C00005219D200A21816004C363178012900D181
:103C1000CAE12823FA5C2E499200821813880B40CF
:103C200030214B402B490B43138039E5173ABA5CDE
:103C3000002A00D03CE15033C25A283BFB5C1C4DAB
:103C4000DB0080E744202268115A9943B8231152BF
:103C50009B00E15C002900D090E004254031505ADF
:103C6000284308255052505A284350523F39E154B6
:103C70005423D25A183B92081340B9229200A35001
:103C8000200000F0C3FBFFE4402208202368124D0F
:103C9000995A014344209952195A29401952042033
:103CA000995A014399522000FEF7C0FCECE4C0464B
:103CB000020400008F8FFFFF80C000000080FFFF24
:103CC000060400008F0F0000FFFBFFFFFFDFFFFF78
:103CD000BF8FFFFF80800000FFF7FFFF7F32FF32C2
:103CE00094469C4463461A688023DB013340CF002E
:103CF0000193002B00D1EAE05023C35ADB19D44FC3
:103D00001B18B9464B441B889B059B0D99461F0009
:103D1000934200D939E1D21A63461A6000D137E1E3
:103D200073060ED543465A19D200A2186932FF32E3
:103D30001278C84B9200821811881940C64B19435B
:103D400011804B46002B01D100277EE543465919CF
:103D5000C90061180A0071327D31FF32FF311288CB
:103D600009684B46FFF7B6FB6FE5002B00D0DCE09F
:103D70008021138809020B431380F3E42000FEF72F
:103D800055FC81E43E642923FB5C002B00D0E1E07C
:103D900080255033C25AAE4B2D026344C3189B1882
:103DA0001A889205920D1A801A882A431A802923AC
:103DB000FA5C013BFB5C002A00D06FE15032825A72
:103DC0000399DB008918802259180B8812029B0581
:103DD0009B0D0B800B8813430B8028252000795DF9
:103DE000FEF704FC029B2068002B00D011E77B5DEE
:103DF00098499B00C3181A880A4098490A431A80B8
:103E000007E7002229233A64FB5C002B00D097E0EF
:103E1000039A50239046C35A434463441A88920538
:103E2000920D1A801A88114389B219802923FA5CED
:103E3000013BFB5C002A00D0FCE0894950328C46F3
:103E4000DB00825A6344C018801880220388120263
:103E50009B059B0D038003881343038028252000C6
:103E6000795DFEF7C3FB029B2068002BBFD1D0E633
:103E7000442221687B488B5A03408B522000FEF776
:103E8000C1FBFFF701FCA3540021200000F0BEFAA3
:103E90006CE5012B00D062E671494F338C46C25A63
:103EA000283BFB5CDB00634418188018068056E64C
:103EB000012A00D053E6664D4F32AC46815A283A6B
:103EC000BA5CD200624480184018038047E6502351
:103ED000C35ADB19624F1B18B9464B441B889B051C
:103EE0009B0D99461F00934240D8D21A63461A6030
:103EF0003FD073060ED443465A19D200A218693235
:103F0000FF321278534B9200821811881940524B9D
:103F1000194311804B46002B00D115E74346591930
:103F2000C90061180A00733216E7012559082B40B1
:103F3000C918138889020B439BB21380FFF712FC48
:103F4000012B8BD103994F338846C35A43446344B2
:103F50001A806BE7012B00D03FE74F33C25A3C4B2E
:103F60006344C3189B1800221A8020E76346019A15
:103F70001A60890041180A883B4B13408022920145
:103F80005A403A4B1A430A80B3E7002263461A604C
:103F9000890041180A88344B1340802292015A400C
:103FA000324B1A430A80BBE6D16B8C469C44614677
:103FB0000191D163516C8C469C4461465164916C73
:103FC0008946916B8C46894500D27FE04B465B1A4F
:103FD00093648BB22922BA5C002A6BD15032865A84
:103FE000283ABA5C0399D200891951180A889205B7
:103FF000920D0A8062463E2A00D87BE05209914623
:1040000066461F2232405642564132004E46B21A90
:1040100091464E460A88B6021643154A324392B27A
:104020000A804544ED0065196A8E0199FFF73CFA54
:104030002068EEE5012A00D010E709494F328C468E
:10404000DB00825A6344C3189B1800221A8005E7DC
:10405000020400008F8FFFFFC080000080C00000BE
:1040600006040000FFFDFFFF8FBFFFFF8080000000
:104070000080FFFF012A00D002E5039E4F32B446C4
:10408000815A283ABA5C6144D20052181380F7E48E
:104090006646002E36D10E701E00CAE4012A00D0FA
:1040A0009BE64F32825A0399DB00891800225B1885
:1040B0001A8092E6012AB4D14F32865A283ABA5C65
:1040C0000399D200891951180B80AAE749460029A3
:1040D0000AD131709C467DE7002E18D180261188C8
:1040E000360231431180CBE40023CC469364337015
:1040F0008BB26FE7002A16D180260A883602324337
:104100000A808EE700230B709364B3B291E47108C8
:104110008C4601210E40B444614616888902314321
:1041200089B21180ACE452089146012662463240C1
:1041300091444E460A88B602324392B20A8070E732
:1041400070B5AA25AD00435D0400012B0AD0012300
:1041500043552333C1540068FFF792F90023002030
:10416000635570BD0220FCE770B507250D4049B2CC
:104170000400002920DBA8004019C000010000262F
:10418000201869316A30FF31FF30611806700D70F8
:104190000A61CB70022B01D100230B71AA25AD005F
:1041A000635D012B10D0012320686355FEF7FAFAF6
:1041B00000230020635570BD681C81000918012090
:1041C000C90061184870E2E70220F4E707220A40BC
:1041D00049B270B5040000291ADB93009B18DB007C
:1041E00019006931FF314118C318AA2500206A332C
:1041F000FF331870AD000A70635D012B15D00123E9
:1042000020686355FEF740FC00230020635570BD15
:10421000531C9900C918AA250123C90041184B70E5
:104220000A70AD00635D012BE9D10220EFE7C046C3
:1042300070B5072421408C006418E40005192E0095
:104240007D36FF3632602A008132FF321360002350
:1042500069355360FF35173A1370297021006931B1
:10426000FF3141180068FEF7B7FC002070BDC04662
:1042700007230B409900C918C90040188530FF304A
:104280000068704770B5072421408C006418E40072
:1042900004192500E26301224C3523642A70A364CB
:1042A000002363642933E254013BE15401318B0064
:1042B0005918C90041180068FEF78EFC002070BD37
:1042C0000723426870B50B40040093422FD84AB2CE
:1042D000002A1BDB8A005218D20011006931FF311D
:1042E0004118821800206A32FF321070AA2501227C
:1042F0000B708A70AD00635D012B16D0625520688B
:10430000FFF758F800230020635570BD5A1C910038
:1043100089180122C90041184A70AA2501220B7090
:104320008A70AD00635D012BE8D10220EDE701202A
:10433000EBE7C0460F23426870B50B400400934280
:1043400031D807220A4049B200291BDB93009B1891
:10435000DB0019006931FF314118C3180026002025
:10436000AA256A33FF331870AD008E700A70635D42
:10437000012B16D0012320686355FFF73BF800207E
:10438000665570BD531C9900C91800260123AA2543
:10439000C90041184B708E700A70AD00635D012B2F
:1043A000E8D10220EDE70120EBE7C04610B50C068E
:1043B00011D507240C400134A1000C19E4000019A8
:1043C00099B2002A03D10273C180002010BD0122DE
:1043D00083600273F9E78C006418E4006934FF34E9
:1043E0000019EDE7BA2301219B000268C1500021AA
:1043F000083BC15454230120D15A01430220D15219
:10440000D15A0143D15200207047C0467047C04680
:10441000F0B5CE46474680B5040083B0002800D1F1
:104420001AE10368DA072FD50C21C34842680A4015
:10443000042A00D14EE142681140082900D140E130
:104440006368012B00D14FE1002B00D165E1052B02
:1044500000D170E2B84BB9491A680A401A601A686C
:10446000B7490A401A6000F041FC80250700B24EAF
:10447000AD0205E000F03AFCC01B642800D94AE117
:1044800033682B42F6D023689A0729D50C22AA4913
:104490004868024200D1EEE048680240082A00D194
:1044A000E0E0E368002B00D17DE10122A24F02256C
:1044B0003B6813433B6000F019FC060005E000F088
:1044C00015FC801B022800D925E13B681D42F6D06F
:1044D000F8213A6823698A43DB0013433B60236871
:1044E0001A072DD45A0745D580220020924B520539
:1044F000D9698046114208D1D9691143D961DB6974
:104500001A400192019B0123984680278D4E7F001F
:1045100033683B4200D1EEE0A368012B00D156E1A5
:10452000002B00D11CE1052B00D1DBE10121824BE6
:104530001A6A8A431A621A6A03318A431A624AE182
:10454000E3697D4D002B00D1A8E001226B6A0226B1
:1045500013436B6200F0CAFB070005E000F0C6FBE6
:10456000C01B022800D9D6E06B6A1E42F6D0236831
:104570005A07B9D4DA0612D56269012A00D1BBE123
:10458000053200D038E10420F8256B494A6B82439C
:104590004A63486BA269A843D20002434A639B0660
:1045A00024D50C2264494B6813400C2B00D143E105
:1045B0004B681A40082A00D137E1236A5E4D002B70
:1045C00000D143E180236A6B5B0213436B6300F00D
:1045D0008DFB80260700B60205E000F087FBC01BBC
:1045E000022800D997E06B6B3342F6D0636A002B48
:1045F0001BD00C22504D69680A40082A17D0022BA4
:1046000000D137E12B68504A802413402B6000F022
:104610006DFBA404060005E000F068FB801B022887
:1046200000D978E02B682342F6D1002015E0012B59
:1046300012D0C0236A68A06A5B02E96A1340834211
:104640000AD10F230B40216B8B4205D1F0239B0332
:104650001A40E36A9A42E8D0012003B00CBC9046AD
:104660009946F0BD4A68C02149020A4080210902EA
:104670008A4200D015E7304A1268920702D5E268F4
:10468000012AE9D1F8252C4822690168D200A94302
:104690000A4302601A0700D424E751E701226B6A3B
:1046A000022693436B6200F021FB070004E000F058
:1046B0001DFBC01B02282ED86B6A1E42F7D123684F
:1046C00056E7C021426849020A40802149028A42D5
:1046D00000D0B5E6184A1268920300D4D4E66268A6
:1046E000002A00D0D0E6B7E78023134A5B021168A6
:1046F0000B431360B7E633683B43336000F0F6FAD0
:10470000050004E000F0F2FA401B642803D8336887
:104710003B42F7D000E703209FE7074D074A2B688D
:10472000802613402B602B68054AB60213402B608D
:1047300000F0DCFA07000EE000100240FFFFFEFF71
:10474000FFFFFBFF00700040FFFFFFFE00F0CEFA0E
:10475000C01B6428DFD82B683342F7D1236893E667
:1047600001227B4E0227336A7A4D93433362336AC8
:1047700003329343336200F0B9FA814605E000F05A
:10478000B5FA4B46C01AA842C5D8336A1F42F6D1C3
:1047900042462368012A00D0ECE66D496E48CA699A
:1047A0000240CA61E6E60122694D02262B68934366
:1047B0002B6000F09BFA070004E000F097FAC01BA2
:1047C0000228A8D82B681E42F7D1236888E66049E2
:1047D0000A6A13430B6200F089FA5D4F8146022694
:1047E0005C4D05E000F082FA4B46C01AA84292D810
:1047F0003B6A1E42F6D0CBE70422554D02266B6B76
:1048000013436B636B6B033A93436B6300F06EFA75
:10481000070005E000F06AFAC01B022800D97AE719
:104820006B6B1E42F6D12368B9E6C0224B68520278
:104830001340934200D0C0E6454B5B6B9B0300D412
:10484000D4E6236A012B00D006E7CFE66B6B434A20
:10485000802613406B6300F049FAB602070005E0BA
:1048600000F044FAC01B022800D954E76B6B3342B6
:10487000F6D1BBE62B683A4A802613402B6000F045
:1048800035FAB604070005E000F030FAC01B022834
:1048900000D940E72B683342F6D10F22EB6A9343ED
:1048A000226B1343EB62A16AE36A6A680B432D49EA
:1048B00080240A4013436B6080232A685B041343FF
:1048C0002B6000F013FA224D0600A40405E000F06E
:1048D0000DFA801B022800D91DE72B682342F6D071
:1048E0000020BAE604211A4B1A6A0A431A621A6AAD
:1048F00003390A431A626EE70421154D02266B6BD9
:104900000B436B636B6B1A436A6300F0EFF90700AC
:1049100005E000F0EBF9C01B022800D9FBE66B6B49
:104920001E42F6D0F8216A6BA3698A43DB00134369
:104930006B63236833E68022054BD20219680A4371
:104940001A608022196852020A431A608BE5C04639
:104950000010024088130000FFFFFFEFFFFFFEFF83
:10496000FFFFFFFEFF7FC2FF0C20164A10B5536801
:104970001840082809D00C3843425841124B404295
:104980001840124B9C46604410BD0F21D26A980C0F
:10499000084011400E4A0F4C515CC022245C80201C
:1049A000520213404002834201D0934204D0074890
:1049B000FDF776F86043E7E70748FDF771F86043D5
:1049C000E2E7C04600100240005A620200127A007C
:1049D000F8CB0008E8CB0008006CDC02F8B5CE4646
:1049E0004746040080B50D0000280DD001233F4943
:1049F0000A681A40AA420CD20A689A432A430A60FB
:104A00000A681340AB4204D001200CBC9046994682
:104A1000F8BD23689A070ED55A0705D5E022344918
:104A2000D200486802434A60F02031494A68824314
:104A3000A06802434A60DB0723D562682C4B012A39
:104A400049D0022A43D0032A4BD01B689B07DBD5F1
:104A50000321274E0C2773688B431343736000F0C8
:104A600045F9244B8146984605E000F03FF94B4656
:104A7000C01A404533D8726863683A409B009A4236
:104A8000F3D10121194A13680B40AB4205D91368D1
:104A90008B43136013681942B6D123685B0706D5B0
:104AA000134A154953680B40E1680B435360FFF705
:104AB0005BFF0F4B114A5B681B061B0FD35CD84092
:104AC0000F4B1860002000F0CFF800209DE71B6816
:104AD0009B01BDD498E71B689B03B9D494E70320DE
:104AE00093E75B6B9B03B3D48EE7C0460020024084
:104AF0000010024088130000FFF8FFFF08CC0008F8
:104B0000F0000020F0B5CE46474680B5036883B07C
:104B10000400DA032ED580224C4B5205D9690027B8
:104B200011425AD080264A4D76002B68334262D01B
:104B3000C021464D89002A6A60680A4011D00140B0
:104B400091420ED08022296A2E6A520232432A6292
:104B50002A6A404B404E0B4032402A622B62CB0700
:104B600061D43A4A3B49136A0B40034313622368FA
:104B7000012F51D0DA0706D5032034490A6B82434E
:104B8000A06802430A639A0706D5304933480A6B86
:104B90000240E06802430A639A0606D510202B49BA
:104BA0000A6B8243206902430A639A0306D5802078
:104BB00026490A6B8243A06902430A6300205B0511
:104BC00006D54021214A136B8B4361690B43136364
:104BD00003B00CBC90469946F0BD8026D9691C4DA7
:104BE0001143D961DB6976001A400192019B2B6861
:104BF000013733429CD12B6833432B6000F076F8A9
:104C000080462B68334293D100F070F84346C01AB7
:104C10006428F6D90320DBE7D16911480140D1614E
:104C2000DA07B0D5A8E700F061F80E4B80460226FF
:104C3000994605E000F05AF84346C01A4845E9D8BD
:104C40002B6A1E42F6D060688BE7C0460010024017
:104C500000700040FFFCFFFFFFFFFEFFFFFFFCFFB7
:104C6000FFFFFFEF8813000010B50400FA200E4B81
:104C700080001978FCF714FF0C4B01001868FCF752
:104C80000FFF00F01FFA00280CD10130032C00D9CF
:104C900010BD02380022210000F0DCF9044B002096
:104CA0001C60F5E70120F3E7E8000020F000002099
:104CB000EC0000201021064A10B5136800200B43B9
:104CC0001360FFF7D1FFFDF709FB002010BDC046C0
:104CD00000200240034A044B11681B785B181360E4
:104CE0007047C046582F0020E8000020014B18688C
:104CF0007047C046582F002010B5041E4CD04123E9
:104D0000C35CDBB2002B42D0412324220121E254B8
:104D10002368A0681A688A431A6061681F4A0A40BB
:104D20001A619A681E490A409A60E268012A29D0ED
:104D30008421090201439960022A02D180221201D2
:104D40005A605968174A00200A435A60DA681449C1
:104D50000A40DA60616922690A43A16909020A43CB
:104D6000DA60216AE2690A4301211A601A680A437B
:104D70001A60002341221F316364A154013223636E
:104D8000A35410BD8021090201439960D9E7402254
:104D90008354FDF7BBFAB7E70120F2E7FFFFFFF00E
:104DA000FF7FFFFF00800002F0B54126825DD2B296
:104DB000202A1BD14027C35D012B17D001242423B7
:104DC000A446835503681D68A5431D601D68084CF3
:104DD00025401D601C680C431C6064461968214313
:104DE000196000238255C3550020F0BD0220FCE766
:104DF000FFEFFFFFF0B5CE464746412480B5035D87
:104E0000DBB2202B1FD14026825D012A1BD0242239
:104E1000012702550268B94615680902BD431560AD
:104E20001568A8464746094D2F404D463943116045
:104E300011682943116003550023835500200CBCE1
:104E400090469946F0BD0220F9E7C046FFF0FFFF0B
:104E5000F0B5DE4657464E464546E0B50B6887B08E
:104E60001A0001930023002A6ED0704A704F9346B7
:104E7000039101229A4094466146019A0A40924663
:104E80005ED003995D004C680321A9400322CE4304
:104E900022400296561E012E5DD9032A00D073E0EF
:104EA000AA400668029931401143C0229202016073
:104EB000144245D05A4601215D4692690F260A43A5
:104EC000AA61AA6903250A405A491D408C46AD00D3
:104ED000AE400592059A9A08920062449168B143E7
:104EE0009026F605B04212D0534EB04200D190E069
:104EF000524EB04200D190E0514EB04200D184E019
:104F0000504EB04200D18CE00526AE403143916056
:104F10005146CD4380214903BA680C4266D12A40EC
:104F2000BA60F968A20267D42940F9607968A203DF
:104F300068D4294079603A68E10352D42A403A6043
:104F4000019A0133DA4094D107B03CBC90469946AF
:104F5000A246AB46F0BD8168029E31408946039966
:104F6000C968A9408846494646463143664681603D
:104F70004168B143012688462109314099408C4659
:104F80004146664631434160C66802990E40039926
:104F9000B0468E68AE40B446464661460E43C66093
:104FA000022A00D07CE7D90889008C4684446146F7
:104FB000096A894607211940890088460F2146461B
:104FC000B1404E468E43B146464603990969B14009
:104FD0008846494646463143894661464E460E62FA
:104FE0005EE7514611430A003A60A9E751460A4379
:104FF000BA60F968A20297D552461143F960796800
:10500000A20396D55246114394E70326AE4031439E
:105010007DE70126AE40314379E70226AE403143B9
:1050200075E70426AE40314371E7C04600100240E8
:10503000000401400000014000040048000800484E
:10504000000C004800100048002A01D08161704720
:105050008162FCE7FF22032330B51400C5B22B4068
:10506000DB009C4089010A40E4439A4000280BDBA6
:105070000C4B80089C46C023800060449B00C158B4
:105080000C402243C25030BD0F2307492B408C46B1
:10509000083B9B089B006344D9690C402243DA61BA
:1050A000F1E7C04600E100E000ED00E0002805DB8C
:1050B0001F2318401E3B8340014A13607047C046BF
:1050C00000E100E00A4A431E012093420ED8C021AD
:1050D000084A09485360036A09061B021B0A0B436E
:1050E0000362002300209360073313607047C046BB
:1050F000FFFFFF0010E000E000ED00E0F0B5D64655
:105100004F4646460400C0B5002800D18EE0456AEF
:10511000002D65D00023036143610023A3625D334A
:10512000E35CDBB2002B68D05D2302224021E25415
:105130002268E06813688B431360E023DB00984229
:1051400062D9F0231B01984200D071E08023A16A4C
:105150009B01194000238C469A46822366685B00B7
:1051600033408426A76836023E403343022627692F
:10517000A1693E40334301266769B14637403B434E
:105180008027BF000F403B433827E669090C3740B2
:1051900080263B433700266A374066463B4333430D
:1051A00013600823666B57463340F02636013040C3
:1051B0001843042319400143102005400D432F4399
:1051C0005760D3691C4900200B40D36100234A4635
:1051D00023665D33E2541CBC90469946A246F0BD5E
:1051E000822342685B009A4297D00023C561A36284
:1051F0005D33E35CDBB2002B96D15C222000A3542C
:10520000FDF7BAF8656A8FE7984206D080235B0104
:105210009A460023A3629C469FE78023A16A9B01D4
:10522000194080235B018C469A4696E70120D2E71D
:1052300000239A46EDE7C046FFF7FFFFF8B5041ECE
:105240004FD03C23C35CDBB2002B45D03C23022271
:105250002168E2543B3B0B60A06863680A68034323
:1052600060690343A0690343E0690343606A034341
:10527000A06A034313432269520413430B60237B48
:10528000012B04D180230A685B0213430B60256B5A
:10529000636BA06B2B431A000243D2430A610122C5
:1052A0008B620F26086200230020944637009A0084
:1052B00097403D4202D062469A4010430133082B8A
:1052C000F4D1032208634B68002093434B603C23D6
:1052D0008A60023AE254F8BD3D228354FDF780F81B
:1052E000B4E70120F7E7C0467047C04610B5002874
:1052F00014D084239B00C458002C01D00024C45037
:10530000002902D083239B00C150FE2301215B00B2
:10531000C1540270FDF78EF9002010BD0220FCE799
:10532000002904D084239B00C15000207047022034
:10533000FCE7C04610B5FDF7A9F9002010BDC04636
:1053400084239B00C35810B5002B04D01B689847DA
:10535000002800D110BD0220FCE7C046842310B510
:105360009B00C3585B689847002010BD81239B00B9
:1053700070B5C5180400280000F090FAFA23012245
:105380005B00E250124BE25A123BE2500C33E15CFC
:10539000E63BFF3B0B40012B0AD0002B12D0022B27
:1053A0000BD07F2320009943FDF78CF9002070BDBE
:1053B0002900200000F0EEF9F8E72900200000F0B5
:1053C0000BFAF3E72900200000F0C4F8EEE7C0462E
:1053D0000A02000010B513000400002906D1FA22C9
:1053E00052008258032A0ED0002010BD84239B0057
:1053F000C3589B69002BF7D0FE225200825C032A1F
:10540000F2D19847F0E70530FF308168C2689142D9
:1054100010D884239B00E3581B69002B06D0FE2282
:105420005200A25C032A01D120009847200000F01E
:1054300091FAD9E7891A81608A4205D892B2190097
:10544000200000F07FFACFE70A00F7E7F8B5040084
:105450001300002906D1FA2252008258022A0ED0E7
:105460000020F8BD84239B00C3585B69002BF7D054
:10547000FE225200825C032AF2D19847F0E7C2690B
:10548000056AAA4223D8866929003000FCF78EFB02
:105490000F1E0DD1B5420BD8FC256D0063599E42FD
:1054A00006D200220021200000F044FA6751D7E71D
:1054B00084239B00E358DB68002B04D0FE225200BB
:1054C000A25C032A0AD0200000F050FAC8E7521B61
:1054D000C261190092B200F02DFAC1E7200098478E
:1054E000F1E7C04670B54023002200210400FDF71B
:1054F000D5F8882340255B00E5500022D03B802171
:105500002000FDF7CBF8FE2301225B002562E25468
:105510001833E358002B06D084239B00E3582179ED
:105520005B6820009847002070BDC04601740020D1
:105530007047C046FE2310B55B00C35C032B01D04F
:10554000002010BD84239B00C358DB69002BF7D0DB
:105550009847F5E770B54B7882B004000D00092B31
:105560000ED88A4A9B00D3589F464A88130A022BBA
:1055700000D1C2E0032B00D1C8E0012B00D18CE0A8
:1055800080212000FDF79EF800212000FDF79AF809
:10559000002002B070BD8B787D4D2B70012BEFD8B1
:1055A000FE214900425C022A00D192E0032AE7D1A1
:1055B000002B00D1C1E0416801293CD0C9B2FFF7FE
:1055C000CDFE297820006160FFF7BAFE022832D1B3
:1055D000D6E7FE235B00C35C023B012BD0D800233F
:1055E000C36080239B00C358002B01D00223C360FB
:1055F000210002220C31200000F08EF9C8E7FE23C2
:105600005B00C35C023B012BBAD84B88012BBFD196
:10561000802300229B00C250103307E04B88012BEF
:10562000B6D180229200835084239B00E358290046
:105630009B6820009847200000F08CF9A8E78B8831
:10564000002B9DD1CB88002B9AD1FE267600835D5E
:10565000032B00D194E77F254B881D40FF235B007F
:10566000C5542900FDF756F8200000F073F9002D0D
:1056700060D00223A3558BE7CB88012B00D07FE7B6
:10568000FC33FF33C35C022B2FD0032B00D077E712
:10569000011D012200F040F97AE76B469E1D83232D
:1056A0009B00E358007C1B68310098473388002B2F
:1056B00000D16DE7EA88002A00D169E7191C9342FE
:1056C00000D9111C8AB231800100200000F024F9B9
:1056D0005EE7002BAFD00123436002334354012126
:1056E000FFF72EFE0228A6D14AE7002301008360BF
:1056F0000831012200F010F94AE76B469E1D842311
:105700009B00C35830009B6A9847CFE7D2B2012A6A
:1057100031D0002A25D0022A19D0032A00D02FE741
:105720006B469E1D83239B00E35831001B69007C60
:105730009847BBE70123A3552AE70222425443605E
:105740000021FFF70BFE200000F004F920E76B4674
:105750009E1D83239B00E3583100DB68007C984743
:10576000A4E76B469E1D83239B00E35831005B68D2
:10577000007C98479AE76B469E1D83239B00E35865
:1057800031009B68007C984790E7C04618CC000821
:105790006C020020FE2370B55B00C35C04000D00AA
:1057A000032B0ED10B79022B0BD884239B00C358FB
:1057B0009B689847EB88002B0BD1200000F0CAF8BB
:1057C00007E080212000FCF77DFF00212000FCF78E
:1057D00079FF002070BDC04670B50C008A886378E0
:1057E0000500D1B2012B35D0002B12D0032B0ED1E6
:1057F000FA33FF33C35C022B10D0032B43D080213C
:105800002800FCF75FFF00212800FCF75BFF002069
:1058100070BDFE235B00C35C022B05D14B06F6D0A6
:105820002800FCF74FFFF2E7032BE8D17F240C4060
:10583000240113062FD40534FF3404192800FCF783
:1058400051FF431E9841022220602100280000F0F1
:1058500063F8DCE7FE235B00C35C022BDED0032B86
:10586000CDD16388002BD2D14B0608D0FCF732FF94
:1058700084239B00EB5821009B6828009847280050
:1058800000F068F8C3E76388002BF1D14B06EFD036
:10589000FCF718FFECE714340419CFE70B7803701A
:1058A0004B784370CA788B7812029B1843804A79F0
:1058B0000B7912029B188380CA798B7912029B188C
:1058C000C380704770B5002821D00378002B1FD00B
:1058D00001260300361A9C1901331D78E4B2002D0D
:1058E000F9D101346400E3B214800B7003234B70D0
:1058F0000478002C0BD00025013B5A1CD2B2CC54AA
:1059000001308D5404780233DBB2002CF5D170BD28
:1059100002230224E8E7C0461300FA2210B502244D
:10592000520084500A008361C3610021FCF7FAFE33
:10593000002010BD10B513000A000021FCF7F2FE94
:10594000002010BD10B513000A000021FCF7F4FE82
:10595000002010BDFA23042210B55B00C2500021C4
:1059600000230022FCF7DEFE002010BDFA230522F2
:1059700010B55B00C250002100230022FCF7DCFEC2
:10598000002010BD024B1B880380024B1868704733
:1059900060CB000864CB0008F8B50E4D2C68002CD5
:1059A00016D00D4E3368002B12D1402C00DD402460
:1059B0000A4F0B4AA3B2106882213A68FCF7B2FE84
:1059C0003B681B193B602B681C1B01232C60336058
:1059D000F8BDC046540E00204C0E0020500E002092
:1059E000580E002070B504000025084B82211D6070
:1059F000FCF760FE03212000FCF75CFE8121200003
:105A0000FCF758FE024B00201D7070BD580E0020A0
:105A10006E020020802310B51943822901D0002096
:105A200010BD0022054B1A60054B1B68002B02D1EC
:105A3000044B01321A70FFF7AFFFF0E74C0E002065
:105A4000540E00206E02002010B54B78432B01D07D
:105A5000002010BD8B88034A812193800823FCF726
:105A600061FEF5E7F400002000207047074B10B5F9
:105A70001A68074B0321D218064B18684023FCF71D
:105A80005BFE431E9841044B187010BD5C0800205B
:105A900070020020580E00206D0200200E4B10B541
:105AA0001B78002B15D10D4A1368002B0BD0013346
:105AB000202B0CDD00231360094B1B68002B02D147
:105AC0000122084B1A70FFF767FF002010BD13601A
:105AD000F9E7FFF7CBFFE6E76D0200204C0E002050
